{
  "contractName": "CrowdFunding",
  "abi": [
    {
      "constant": true,
      "inputs": [],
      "name": "name",
      "outputs": [
        {
          "name": "",
          "type": "string"
        }
      ],
      "payable": false,
      "stateMutability": "view",
      "type": "function"
    },
    {
      "constant": true,
      "inputs": [],
      "name": "beneficiary",
      "outputs": [
        {
          "name": "",
          "type": "address"
        }
      ],
      "payable": false,
      "stateMutability": "view",
      "type": "function"
    },
    {
      "constant": true,
      "inputs": [],
      "name": "targetReached",
      "outputs": [
        {
          "name": "",
          "type": "bool"
        }
      ],
      "payable": false,
      "stateMutability": "view",
      "type": "function"
    },
    {
      "constant": true,
      "inputs": [
        {
          "name": "",
          "type": "address"
        }
      ],
      "name": "amounts",
      "outputs": [
        {
          "name": "",
          "type": "uint256"
        }
      ],
      "payable": false,
      "stateMutability": "view",
      "type": "function"
    },
    {
      "constant": true,
      "inputs": [],
      "name": "fundingDeadline",
      "outputs": [
        {
          "name": "",
          "type": "uint256"
        }
      ],
      "payable": false,
      "stateMutability": "view",
      "type": "function"
    },
    {
      "constant": true,
      "inputs": [],
      "name": "targetAmount",
      "outputs": [
        {
          "name": "",
          "type": "uint256"
        }
      ],
      "payable": false,
      "stateMutability": "view",
      "type": "function"
    },
    {
      "constant": true,
      "inputs": [],
      "name": "state",
      "outputs": [
        {
          "name": "",
          "type": "uint8"
        }
      ],
      "payable": false,
      "stateMutability": "view",
      "type": "function"
    },
    {
      "constant": true,
      "inputs": [],
      "name": "totalCollected",
      "outputs": [
        {
          "name": "",
          "type": "uint256"
        }
      ],
      "payable": false,
      "stateMutability": "view",
      "type": "function"
    },
    {
      "inputs": [
        {
          "name": "contractName",
          "type": "string"
        },
        {
          "name": "targetAmountEth",
          "type": "uint256"
        },
        {
          "name": "durationInMin",
          "type": "uint256"
        },
        {
          "name": "beneficiaryAddress",
          "type": "address"
        }
      ],
      "payable": false,
      "stateMutability": "nonpayable",
      "type": "constructor"
    },
    {
      "anonymous": false,
      "inputs": [
        {
          "indexed": false,
          "name": "addr",
          "type": "address"
        },
        {
          "indexed": false,
          "name": "totalCollected",
          "type": "uint256"
        },
        {
          "indexed": false,
          "name": "succeeded",
          "type": "bool"
        }
      ],
      "name": "CampaignFinished",
      "type": "event"
    },
    {
      "constant": false,
      "inputs": [],
      "name": "contribute",
      "outputs": [],
      "payable": true,
      "stateMutability": "payable",
      "type": "function"
    },
    {
      "constant": false,
      "inputs": [],
      "name": "collect",
      "outputs": [],
      "payable": false,
      "stateMutability": "nonpayable",
      "type": "function"
    },
    {
      "constant": false,
      "inputs": [],
      "name": "withdraw",
      "outputs": [],
      "payable": false,
      "stateMutability": "nonpayable",
      "type": "function"
    },
    {
      "constant": false,
      "inputs": [],
      "name": "finishCrowdFunding",
      "outputs": [],
      "payable": false,
      "stateMutability": "nonpayable",
      "type": "function"
    },
    {
      "constant": true,
      "inputs": [],
      "name": "beforeDeadline",
      "outputs": [
        {
          "name": "",
          "type": "bool"
        }
      ],
      "payable": false,
      "stateMutability": "view",
      "type": "function"
    }
  ],
  "bytecode": "0x60806040523480156200001157600080fd5b5060405162000f6238038062000f62833981018060405260808110156200003757600080fd5b8101908080516401000000008111156200005057600080fd5b828101905060208101848111156200006757600080fd5b81518560018202830111640100000000821117156200008557600080fd5b50509291906020018051906020019092919080519060200190929190805190602001909291905050508360009080519060200190620000c692919062000276565b5073__Utils_________________________________63d8916bb9846040518263ffffffff1660e01b81526004018082815260200191505060206040518083038186803b1580156200011757600080fd5b505af41580156200012c573d6000803e3d6000fd5b505050506040513d60208110156200014357600080fd5b810190808051906020019092919050505060018190555073__Utils_________________________________63529b380f836040518263ffffffff1660e01b81526004018082815260200191505060206040518083038186803b158015620001aa57600080fd5b505af4158015620001bf573d6000803e3d6000fd5b505050506040513d6020811015620001d657600080fd5b8101908080519060200190929190505050620001f76200026e60201b60201c565b0160028190555080600360006101000a81548173ffffffffffffffffffffffffffffffffffffffff021916908373ffffffffffffffffffffffffffffffffffffffff1602179055506000600360146101000a81548160ff021916908360038111156200025f57fe5b02179055505050505062000325565b600042905090565b828054600181600116156101000203166002900490600052602060002090601f016020900481019282601f10620002b957805160ff1916838001178555620002ea565b82800160010185558215620002ea579182015b82811115620002e9578251825591602001919060010190620002cc565b5b509050620002f99190620002fd565b5090565b6200032291905b808211156200031e57600081600090555060010162000304565b5090565b90565b610c2d80620003356000396000f3fe6080604052600436106100c25760003560e01c806368bc00411161007f578063c19d93fb11610059578063c19d93fb146102f5578063d7bb99ba1461032e578063e29eb83614610338578063e522538114610363576100c2565b806368bc004114610270578063796b23bb1461029f578063953b8fb8146102ca576100c2565b806306fdde03146100c7578063083dca111461015757806338af3eed1461016e5780633bde5ba8146101c55780633ccfd60b146101f457806355a3b2c11461020b575b600080fd5b3480156100d357600080fd5b506100dc61037a565b6040518080602001828103825283818151815260200191508051906020019080838360005b8381101561011c578082015181840152602081019050610101565b50505050905090810190601f1680156101495780820380516001836020036101000a031916815260200191505b509250505060405180910390f35b34801561016357600080fd5b5061016c610418565b005b34801561017a57600080fd5b506101836105ff565b604051808273ffffffffffffffffffffffffffffffffffffffff1673ffffffffffffffffffffffffffffffffffffffff16815260200191505060405180910390f35b3480156101d157600080fd5b506101da610625565b604051808215151515815260200191505060405180910390f35b34801561020057600080fd5b50610209610638565b005b34801561021757600080fd5b5061025a6004803603602081101561022e57600080fd5b81019080803573ffffffffffffffffffffffffffffffffffffffff169060200190929190505050610894565b6040518082815260200191505060405180910390f35b34801561027c57600080fd5b506102856108ac565b604051808215151515815260200191505060405180910390f35b3480156102ab57600080fd5b506102b46108bf565b6040518082815260200191505060405180910390f35b3480156102d657600080fd5b506102df6108c5565b6040518082815260200191505060405180910390f35b34801561030157600080fd5b5061030a6108cb565b6040518082600381111561031a57fe5b60ff16815260200191505060405180910390f35b6103366108de565b005b34801561034457600080fd5b5061034d610a5e565b6040518082815260200191505060405180910390f35b34801561036f57600080fd5b50610378610a64565b005b60008054600181600116156101000203166002900480601f0160208091040260200160405190810160405280929190818152602001828054600181600116156101000203166002900480156104105780601f106103e557610100808354040283529160200191610410565b820191906000526020600020905b8154815290600101906020018083116103f357829003601f168201915b505050505081565b600080600381111561042657fe5b600360149054906101000a900460ff16600381111561044157fe5b146104b4576040517f08c379a000000000000000000000000000000000000000000000000000000000815260040180806020018281038252600d8152602001807f496e76616c69642073746174650000000000000000000000000000000000000081525060200191505060405180910390fd5b6104bc6108ac565b15610512576040517f08c379a0000000000000000000000000000000000000000000000000000000008152600401808060200182810382526028815260200180610bda6028913960400191505060405180910390fd5b600560009054906101000a900460ff1661054f576001600360146101000a81548160ff0219169083600381111561054557fe5b0217905550610574565b6002600360146101000a81548160ff0219169083600381111561056e57fe5b02179055505b7f6fa7e87ebbd87ed4f1c40bba63144f68fd2bb022fb748ab3b61b5411c39bd47430600654600560009054906101000a900460ff16604051808473ffffffffffffffffffffffffffffffffffffffff1673ffffffffffffffffffffffffffffffffffffffff16815260200183815260200182151515158152602001935050505060405180910390a150565b600360009054906101000a900473ffffffffffffffffffffffffffffffffffffffff1681565b600560009054906101000a900460ff1681565b600180600381111561064657fe5b600360149054906101000a900460ff16600381111561066157fe5b146106d4576040517f08c379a000000000000000000000000000000000000000000000000000000000815260040180806020018281038252600d8152602001807f496e76616c69642073746174650000000000000000000000000000000000000081525060200191505060405180910390fd5b6000600460003373ffffffffffffffffffffffffffffffffffffffff1673ffffffffffffffffffffffffffffffffffffffff1681526020019081526020016000205411610789576040517f08c379a00000000000000000000000000000000000000000000000000000000081526004018080602001828103825260178152602001807f4e6f7468696e672077617320636f6e747269627574656400000000000000000081525060200191505060405180910390fd5b6000600460003373ffffffffffffffffffffffffffffffffffffffff1673ffffffffffffffffffffffffffffffffffffffff1681526020019081526020016000205490506000600460003373ffffffffffffffffffffffffffffffffffffffff1673ffffffffffffffffffffffffffffffffffffffff168152602001908152602001600020819055503373ffffffffffffffffffffffffffffffffffffffff166108fc829081150290604051600060405180830381858888f193505050506108905780600460003373ffffffffffffffffffffffffffffffffffffffff1673ffffffffffffffffffffffffffffffffffffffff168152602001908152602001600020819055505b5050565b60046020528060005260406000206000915090505481565b60006002546108b9610bae565b10905090565b60025481565b60015481565b600360149054906101000a900460ff1681565b60008060038111156108ec57fe5b600360149054906101000a900460ff16600381111561090757fe5b1461097a576040517f08c379a000000000000000000000000000000000000000000000000000000000815260040180806020018281038252600d8152602001807f496e76616c69642073746174650000000000000000000000000000000000000081525060200191505060405180910390fd5b6109826108ac565b6109d7576040517f08c379a0000000000000000000000000000000000000000000000000000000008152600401808060200182810382526023815260200180610bb76023913960400191505060405180910390fd5b34600460003373ffffffffffffffffffffffffffffffffffffffff1673ffffffffffffffffffffffffffffffffffffffff168152602001908152602001600020600082825401925050819055503460066000828254019250508190555060015460065410610a5b576001600560006101000a81548160ff0219169083151502179055505b50565b60065481565b6002806003811115610a7257fe5b600360149054906101000a900460ff166003811115610a8d57fe5b14610b00576040517f08c379a000000000000000000000000000000000000000000000000000000000815260040180806020018281038252600d8152602001807f496e76616c69642073746174650000000000000000000000000000000000000081525060200191505060405180910390fd5b600360009054906101000a900473ffffffffffffffffffffffffffffffffffffffff1673ffffffffffffffffffffffffffffffffffffffff166108fc6006549081150290604051600060405180830381858888f1935050505015610b865760038060146101000a81548160ff02191690836003811115610b7c57fe5b0217905550610bab565b6001600360146101000a81548160ff02191690836003811115610ba557fe5b02179055505b50565b60004290509056fe4e6f20636f6e747269627574696f6e732061667465722074686520646561646c696e6543616e6e6f742066696e6973682063616d706169676e206265666f7265206120646561646c696e65a165627a7a72305820e80bffb596be0aed4aa2924bafd0f06daea0ef40a19eeedd6d40b0ca81dad9900029",
  "source": "pragma solidity ^0.5.0;\r\n\r\nimport \"./Utils.sol\";\r\ncontract CrowdFunding {\r\n\r\n\tusing Utils for *;\r\n\r\n\tenum State { Ongoing, Failed, Succeeded, Paidout }\r\n\r\n\tevent CampaignFinished(\r\n\t\taddress addr,\r\n\t\tuint totalCollected,\r\n\t\tbool succeeded\t\r\n\t);\r\n\r\n\tstring public name;\r\n\tuint public targetAmount;\r\n\tuint public fundingDeadline;\r\n\taddress payable public beneficiary;\r\n\tState public state;\r\n\tmapping(address => uint) public amounts;\r\n\tbool public targetReached;\r\n\tuint public totalCollected;\r\n\r\n\tmodifier inState(State expectedState) {\r\n\t\trequire(state == expectedState, \"Invalid state\");\r\n\t\t_;\r\n\t}\r\n\r\n\tconstructor(\r\n\t\tstring memory contractName,\r\n\t\tuint targetAmountEth,\r\n\t\tuint durationInMin,\r\n\t\taddress payable beneficiaryAddress\r\n\t\t) \r\n\tpublic \r\n\t{\r\n\t\tname = contractName;\r\n\t\ttargetAmount = Utils.etherToWei(targetAmountEth);\r\n\t\tfundingDeadline = currentTime() + Utils.minutesToSeconds(durationInMin);\r\n\t\tbeneficiary = beneficiaryAddress;\r\n\t\tstate = State.Ongoing;\r\n\t}\r\n\r\n\tfunction contribute() public payable inState(State.Ongoing) {\r\n\t\trequire(beforeDeadline(), \"No contributions after the deadline\");\r\n\t\tamounts[msg.sender] += msg.value;\r\n\t\ttotalCollected += msg.value;\r\n\r\n\t\tif (totalCollected >= targetAmount) {\r\n\t\t\ttargetReached = true;\r\n\t\t}\r\n\t}\r\n\r\n\tfunction collect() public inState(State.Succeeded) {\r\n\t\tif (beneficiary.send(totalCollected)) {\r\n\t\t\tstate = State.Paidout;\r\n\t\t} else {\r\n\t\t\tstate = State.Failed;\r\n\t\t}\r\n\t}\r\n\r\n\tfunction withdraw() public inState(State.Failed) {\r\n\t\trequire(amounts[msg.sender] > 0, \"Nothing was contributed\");\r\n\t\tuint contributed = amounts[msg.sender];\r\n\t\tamounts[msg.sender] = 0;\r\n\r\n\t\tif (!msg.sender.send(contributed)) {\r\n\t\t\tamounts[msg.sender] = contributed;\r\n\t\t}\r\n\t}\r\n\r\n\tfunction finishCrowdFunding() public inState(State.Ongoing) {\r\n\t\trequire(!beforeDeadline(), \"Cannot finish campaign before a deadline\");\r\n\r\n\t\tif (!targetReached) {\r\n\t\t\tstate = State.Failed;\r\n\t\t} else {\r\n\t\t\tstate = State.Succeeded;\r\n\t\t}\r\n\r\n\t\temit CampaignFinished(address(this), totalCollected, targetReached);\r\n\t}\r\n\r\n\tfunction beforeDeadline() public view returns(bool) {\r\n\t\treturn currentTime() < fundingDeadline;\r\n\t}\r\n\r\n\tfunction currentTime() internal view returns(uint) {\r\n\t\treturn now;\r\n\t}\r\n\r\n\r\n}",
  "sourcePath": "C:\\Users\\lfaro\\Desktop\\C++\\EthereumApp\\Crowdfunding Contract\\contracts\\CrowdFunding.sol",
  "compiler": {
    "name": "solc",
    "version": "0.5.8+commit.23d335f2.Emscripten.clang"
  },
  "schemaVersion": "3.0.16",
  "updatedAt": "2019-09-23T16:33:51.459Z",
  "devdoc": {
    "methods": {}
  },
  "userdoc": {
    "methods": {}
  }
}